S02B0000433A2F55736572732F546F6D6D792F776F726B7370616365732F4D6F6E69746F722F466C7569642FF7
S11304003420C0063420C0DE3400000514C215A513
S113041034004005140243AD3400800514628CB5E9
S11304204400C00500860000C0B20000C08C00007B
S113043040AE0000809D00008076000004000002B1
S1130440040040023400800214628C5234004003E1
S11304501402436B3400800314C29573C409000171
S113046016BD002226B2004026B1004126B0004845
S1130470C40E000126AE00491700007114004001AB
S113048026AB4021170000540EA90004264900B8E9
S11304903A88097000990000170000111400400107
S11304A0261240213A880950009900001700401193
S11304B03A880980C07C00003A8809103A880B8089
S11304C0808100003A881F10170000693AC8C923C8
S11304D0150000693A880968009900001700401166
S11304E03A88CB2B150040113AC8E1830E900004E2
S11304F03A880970809A0000170000111400400126
S1130500261240213A880950809A000017004011B1
S11305103A880980007F00003A8809103A880B80E5
S1130520808100003A881F10170000693AC8C92367
S1130530150000693A880968809A00001700401184
S11305403A88CB2B150040113AC8E1830E78000499
S11305503A880970009C0000170000111400400143
S1130560261240213A880950009C000017004011CF
S11305703A880980007F00003A8809103A880B8085
S1130580808100003A881F10170000693AC8C92307
S1130590150000693A880968009C000017004011A2
S11305A03A88CB2B150040113AC8E1830E60000451
S11305B0065F00003A8809700099000017000011D6
S11305C014004001261240213A8809500099000085
S11305D0170040113A880980007F00003A8809100A
S11305E03A880B80808100003A881F101700006948
S11305F03AC8C923150000693A88096800990000BF
S1130600170040113A88CB2B150040113AC8E183FA
S11306100E4700043A880970809A00001700001100
S113062014004001261240213A880950809A0000A3
S1130630170040113A880980007F00003A880910A9
S11306403A880B80808100003A881F1017000069E7
S11306503AC8C923150000693A880968809A0000DD
S1130660170040113A88CB2B150040113AC8E1839A
S11306700E2F00043A880970009C00001700001136
S113068014004001261240213A880950009C0000C1
S1130690170040113A880980007F00003A88091049
S11306A03A880B80808100003A881F101700006987
S11306B03AC8C923150000693A880968009C0000FB
S11306C0170040113A88CB2B150040113AC8E1833A
S11306D00E1700043A880970809700001700001173
S11306E014004001261240213A88095080970000E6
S11306F0170040113A880980007F00003A880910E9
S11307003A880B80808100003A881F101700006926
S11307103AC8C923150000693A880968809700001F
S1130720170040113A88CB2B150040113AC8E183D9
S1130730040180520401406B040180734400404A68
S1130740C40E0001160140220602000044000042CB
S11307500400400206413F00C08C0000809D000060
S113076006353F0006FF3F0004FEFFDE1500C0DF34
S1130770150100DC340004041410008437000084E4
S11307804C0000813A882F20840000018C004081B5
S113079026040029040100010C01408126030029DC
S11307A00606000006F33F0006040000C0B2000085
S11307B0C08C0000809D000006000000170100DCD2
S11307C01700C0DF0402C0DE3A2800F804FEFFDE92
S11307D01500C0DF150100DCD4FF3F043AC8458191
S11307E0170100DC1700C0DF0402C0DE3A2800F85D
S11307F004FEFFDE1500C0DF150100DC3AC86121EC
S1130800840080013A288581170100DC1700C0DFCD
S11308100402C0DE3A2800F804FEFFDE1500C0DF43
S1130820150100DC840000043A28092416020001A2
S11308303A880500060600003A8805202E010029A2
S11308403A880528D4FF3F012E0180203A880520EC
S1130850170100DC1700C0DF0402C0DE3A2800F8EC
S113086004FAFFDE1500C0DF150100DC150240DCD0
S1130870150380DC1504C0DC150500DD340000041C
S113088014020384340040041460498C3A8825001F
S11308903A882900260540943A88A78415000098D0
S11308A004018094440000A506FA3F00170500DD0A
S11308B01704C0DC170380DC170240DC170100DCDE
S11308C01700C0DF0406C0DE3A2800F804F8FFDE93
S11308D01500C0DF150100DC150240DC150380DCC7
S11308E01504C0DC150500DD150640DD150780DDA7
S11308F03400000414020384340040041460498C5E
S11309003A8825003400000514620CA5260640949C
S11309103A88A7843A88ABA41700809D150080AD5F
S11309200401809406F93F00170780DD170640DDB7
S1130930170500DD1704C0DC170380DC170240DC58
S1130940170100DC1700C0DF0408C0DE3A2800F8F5
S113095004FFFFDE1500C0DF3A880530243C002187
S11309603A880511240140293A8845111700C0DF4F
S11309700401C0DE3A2800F804FFFFDE1500C0DFE2
S113098004C4BF201700C0DF0401C0DE3A2800F809
S113099004FFFFDE1500C0DF043C80201700C0DF29
S11309A00401C0DE3A2800F804FFFFDE1500C0DFB2
S11309B004FFBF201700C0DF0401C0DE3A2800F89E
S11309C004FFFFDE1500C0DF040180201700C0DF34
S11309D00401C0DE3A2800F804FDFFDE1500C0DF84
S11309E0150100DC150240DC040000020400400292
S11309F03400800214628C52C431C002C44A000321
S1130A00340042039400416B3400800314C2957394
S1130A104400000444004004161A005A37000051F0
S1130A203700407180A900002D0080684401000156
S1130A301E03008104018052040180730400000439
S1130A40440000848400406B4400404A1601406224
S1130A50060B0000046A7F6B0400416B44000042F3
S1130A6004004002440100011E0200890400400405
S1130A700602000004C4BF5204C4BF734400408C87
S1130A8006E53F00170240DC170100DC1700C0DF59
S1130A900403C0DE3A2800F804FEFFDE1500C0DFC0
S1130AA0150100DC440000042602002C04000004AC
S1130AB02606002CFAD20420D4FF3F040E02008143
S1130AC0D4FFBF00FAD2041006020000D4FFBF0016
S1130AD006000000170100DC1700C0DF0402C0DEBE
S1130AE03A2800F8040000020400400234008200A6
S1130AF034008210C43BC002C44F0003160A005ADB
S1130B002D000010840080104400404A1601406209
S1130B10060400000460BF10040081104400004279
S1130B200400400206F53F003A2800F804FFFFDE07
S1130B301500C0DF040000020400400234008002FB
S1130B4014028352C409C002C40E000334004003DB
S1130B5014C2556B1629005A261E0040261DC04299
S1130B60261C0048261B004B4400800015008068AA
S1130B7004F63F413AC809011E03402204008000E4
S1130B80150080680612000004F63F413AC80901C6
S1130B90840200211E0340220400800015008068A6
S1130BA0060B00004401000116090022840C000118
S1130BB016074022040A000116050049D4FF3F012C
S1130BC0840040013A284921150000510603000021
S1130BD006020000040080001500806804018052B1
S1130BE00401406B4400404A1601406206020000C2
S1130BF0440000420400400206D63F001700C0DF54
S10B0C000401C0DE3A2800F8EB
S1130C0800000000000000000000000000000000D8
S1130C1800000000000000000000000000000000C8
S1130C2800000000000000000000000000000000B8
S1130C3800000000000000000000000000000000A8
S9030400F8
